S01000004932435F54454D502E73726563C1
S11300000C9434000C9451000C9451000C94510045
S11300100C9451000C9451000C9451000C94510018
S11300200C9451000C9451000C9451000C94510008
S11300300C9451000C9451000C9451000C945100F8
S11300400C9451000C9451000C9451000C945100E8
S11300500C9451000C9451000C9451000C945100D8
S11300600C9451000C94510011241FBECFEFD8E022
S1130070DEBFCDBF11E0A0E0B1E0E0E2F9E002C0F4
S113008005900D92A032B107D9F721E0A0E2B1E0CA
S113009001C01D92A632B207E1F70E94A1010C949F
S11300A08E040C940000CF93C82F0E9481018CEE23
S11300B00E948D018C2F0E948D010E9481018DEE82
S11300C00E948D010E949701C82F0E9489018C2FE4
S11300D0CF910895CF93DF93D82FC62F0E9481012B
S11300E08CEE0E948D018D2F0E948D018C2F0E9419
S11300F08D010E948901DF91CF910895CF9388E803
S11301000E945300C82F89E80E94530090E0982F62
S113011088278C2B90932101809320018AE80E94E8
S11301205300C82F8BE80E94530090E0982F882733
S11301308C2B90932301809322018CE80E9453001E
S1130140C82F8DE80E94530090E0982F88278C2BAD
S11301509093250180932401CF91089567E284EF61
S11301600E946A0087EA91E60197F1F700C0000057
S11301700E947E0008954F925F926F927F928F92B9
S11301809F92AF92BF92CF92DF92EF92FF928AEF4B
S11301900E945300882E912CA12CB12C8BEF0E942D
S11301A05300C82ED12CE12CF12C8CEF0E9453006B
S11301B090E0A0E0B0E0072E7CE0880C991CAA1C1B
S11301C0BB1C7A95D1F7702DCC0CDD1CEE1CFF1CEA
S11301D0CC0CDD1CEE1CFF1CCC0CDD1CEE1CFF1C2F
S11301E0CC0CDD1CEE1CFF1CC828D928EA28FB28EF
S11301F0689413F8B695A795979587951694D1F7B3
S1130200BC01CD016C297D298E299F290E946B0395
S11302102B013C0120E030E040E858E30E94F90360
S11302204B015C01609120017091210180E090E01C
S11302300E946B036B017C0120E030E040E85AE34C
S11302400E94F9039B01AC01C501B4010E9456024E
S11302504B015C016091220170912301072E000C77
S1130260880B990B0E946D03A50194010E94F90368
S11302704B015C0120E030E040E057E3C301B201F0
S11302800E94F9032B013C0120E030E040E059E3F7
S1130290C701B6010E94F9039B01AC01C301B2017D
S11302A00E9456026B017C0160912401709125012A
S11302B0072E000C880B990B0E946D03A701960171
S11302C00E94F9039B01AC01C501B4010E945702CD
S11302D020E030E040EA55E40E94C302FF90EF9032
S11302E0DF90CF90BF90AF909F908F907F906F9052
S11302F05F904F90089588E48093B8001092B900FD
S1130300089584EA8093BC008091BC008823E4F7BC
S1130310089584E98093BC0008958093BB0084E829
S11303208093BC008091BC008823E4F7089584E89E
S11303308093BC008091BC008823E4F78091BB00CB
S113034008950E94E6010E947B0180E091E00E94F2
S1130350F9010E94AE000E94BB004B015C0182E1E6
S113036091E00E94F901C501B4010E9435036B01BB
S11303707C01072E000C880B990B0E946D039B01D6
S1130380AC01C501B4010E94560220E030E048EC03
S113039052E40E94F9030E9435034B015C01C6013B
S11303A00E9406028EE20E94F201C4010E9406022B
S11303B08AE191E00E94F9012FEF83ED90E321504F
S11303C080409040E1F700C00000C5CF1092C50006
S11303D087E68093C40088E08093C10086E0809320
S11303E0C20008959091C00095FFFCCF8093C60091
S11303F00895CF93DF93EC0103C021960E94F2018C
S113040088818111FACFDF91CF910895EF92FF9205
S11304100F931F93CF93DF93CDB7DEB72A970FB611
S1130420F894DEBF0FBECDBF7C01009721F480E3BA
S11304300E94F2012EC0992334F48DE20E94F2014D
S1130440F194E194F10800E010E011C0C7016AE002
S113045070E00E946604E1E0F0E0EC0FFD1FE00FA5
S1130460F11F805D8083E62EF72E0F5F1F4F1E1451
S11304701F0464F30BC001501109E1E0F0E0EC0F3C
S1130480FD1FE00FF11F80810E94F201101611067A
S113049094F32A960FB6F894DEBF0FBECDBFDF915A
S11304A0CF911F910F91FF90EF9008955058BB2763
S11304B0AA270E946E020C94BF030E94B10338F075
S11304C00E94B80320F039F49F3F19F426F40C94E9
S11304D0AE030EF4E095E7FB0C94A803E92F0E9409
S11304E0D00358F3BA17620773078407950720F0FF
S11304F079F4A6F50C94F2030EF4E0950B2EBA2FC2
S1130500A02D0B01B90190010C01CA01A001112415
S1130510FF27591B99F0593F50F4503E68F11A16C1
S1130520F040A22F232F342F4427585FF3CF469552
S113053037952795A795F0405395C9F77EF41F1674
S1130540BA0B620B730B840BBAF09150A1F0FF0F3E
S1130550BB1F661F771F881FC2F70EC0BA0F621F2A
S1130560731F841F48F4879577956795B795F7951A
S11305709E3F08F0B0CF9395880F08F09927EE0FAF
S11305809795879508950E94D7020C94BF030E9403
S1130590B80358F00E94B10340F029F45F3F29F0FA
S11305A00C94A80351110C94F3030C94AE030E9411
S11305B0D00368F39923B1F3552391F3951B550B9D
S11305C0BB27AA2762177307840738F09F5F5F4F22
S11305D0220F331F441FAA1FA9F335D00E2E3AF061
S11305E0E0E832D091505040E695001CCAF72BD079
S11305F0FE2F29D0660F771F881FBB1F26173707CA
S11306004807AB07B0E809F0BB0B802DBF01FF27FB
S113061093585F4F3AF09E3F510578F00C94A8032D
S11306200C94F3035F3FE4F3983ED4F386957795F7
S11306306795B795F7959F5FC9F7880F911D9695B4
S1130640879597F90895E1E0660F771F881FBB1F10
S1130650621773078407BA0720F0621B730B840BBD
S1130660BA0BEE1F88F7E09508950E943C03689446
S1130670B1110C94F30308950E94D80388F09F5796
S113068098F0B92F9927B751B0F0E1F0660F771FB2
S1130690881F991F1AF0BA95C9F714C0B13091F0A8
S11306A00E94F203B1E008950C94F203672F782FAF
S11306B08827B85F39F0B93FCCF38695779567956D
S11306C0B395D9F73EF490958095709561957F4FD9
S11306D08F4F9F4F0895E89409C097FB3EF490957F
S11306E08095709561957F4F8F4F9F4F9923A9F007
S11306F0F92F96E9BB279395F69587957795679596
S1130700B795F111F8CFFAF4BB0F11F460FF1BC0D9
S11307106F5F7F4F8F4F9F4F16C0882311F096E96C
S113072011C0772321F09EE8872F762F05C066231A
S113073071F096E8862F70E060E02AF09A95660FD3
S1130740771F881FDAF7880F9695879597F908958C
S113075097F99F6780E870E060E008959FEF80EC70
S1130760089500240A941616170618060906089513
S113077000240A9412161306140605060895092E79
S11307800394000C11F4882352F0BB0F40F4BF2BE8
S113079011F460FF04C06F5F7F4F8F4F9F4F089528
S11307A057FD9058440F551F59F05F3F71F047951E
S11307B0880F97FB991F61F09F3F79F08795089503
S11307C0121613061406551FF2CF4695F1DF08C022
S11307D0161617061806991FF1CF8695710561053F
S11307E008940895E894BB2766277727CB0197F9E7
S11307F008950E940C040C94BF030E94B10338F0C6
S11308000E94B80320F0952311F00C94A8030C94D3
S1130810AE0311240C94F3030E94D00370F3959F4C
S1130820C1F3950F50E0551F629FF001729FBB27E3
S1130830F00DB11D639FAA27F00DB11DAA1F649F7F
S11308406627B00DA11D661F829F2227B00DA11D32
S1130850621F739FB00DA11D621F839FA00D611DB8
S1130860221F749F3327A00D611D231F849F600DD9
S1130870211D822F762F6A2F11249F5750409AF002
S1130880F1F088234AF0EE0FFF1FBB1F661F771F8E
S1130890881F91505040A9F79E3F510580F00C9459
S11308A0A8030C94F3035F3FE4F3983ED4F38695D6
S11308B077956795B795F795E7959F5FC1F7FE2BF9
S11308C0880F911D9695879597F9089597FB072EA4
S11308D016F4009407D077FD09D00E947A0407FC2F
S11308E005D03EF4909581959F4F0895709561953C
S11308F07F4F0895AA1BBB1B51E107C0AA1FBB1F52
S1130900A617B70710F0A61BB70B881F991F5A9597
S1130910A9F780959095BC01CD010895F894FFCF77
S1130920424D5032383020493243204D4F44450D1A
S11309300A0054454D50203D200020430D0A00007C
S9030000FC
