S01B0000447269705F49727269676174696F6E5F5254432E73726563BB
S11300000C9434000C9446000C9446000C94460066
S11300100C9446000C9446000C9446000C94460044
S11300200C9446000C9446000C9446000C94460034
S11300300C9446000C9446000C9446000C94460024
S11300400C9446000C9446000C9446000C94460014
S11300500C9446000C9446000C9446000C94460004
S11300600C9446000C94460011241FBECFEFD8E038
S1130070DEBFCDBF21E0A0E0B1E001C01D92A730FA
S1130080B207E1F70E9448000C9402010C940000AE
S11300900E94C6008AB180648AB980E091E00E941F
S11300A0C90080910201813131F5809101018823D9
S11300B0E1F021C08BB180648BB94FEF89E698E100
S11300C0415080409040E1F700C000008BB18F7B2D
S11300D08BB94FEF89E698E1415080409040E1F7B9
S11300E000C000002F5F3F4F02C020E030E0253009
S11300F0310504F303C08BB18F7B8BB92FEF43ED34
S113010080E3215040408040E1F700C00000C5CFAB
S11301101092B90088E48093B80084E08093BC0016
S1130120089584EA8093BC008091BC008823E4F79E
S1130130089584E98093BC0008958093BB0084E80B
S11301408093BC008091BC008823E4F7089584EC7C
S11301508093BC008091BC008823E4F78091BB00AD
S1130160089584E88093BC008091BC008823E4F760
S11301708091BB000895982F92959F70990F292F15
S1130180220F220F920F8F70890F08950E9488000A
S11301900895CF93DF93EC010E94910080ED0E94BB
S11301A09D0080E00E949D000E94910081ED0E94CC
S11301B09D000E94A7008F770E94BB0088830E9445
S11301C0A7000E94BB0089830E94A7000E94BB0075
S11301D08A830E94A7000E94BB008B830E94A70011
S11301E00E94BB008C830E94A7000E94BB008D83E9
S11301F00E94B1000E94BB008E830E949900DF918F
S10B0200CF910895F894FFCF9B
S9030000FC
