:100000000C9434000C943E000C943E000C943E0082
:100010000C943E000C943E000C943E000C943E0068
:100020000C943E000C943E000C943E000C943E0058
:100030000C943E000C943E000C943E000C943E0048
:100040000C943E000C943E000C943E000C943E0038
:100050000C943E000C943E000C943E000C943E0028
:100060000C943E000C943E0011241FBECFEFD8E04C
:10007000DEBFCDBF0E9440000C9476000C940000BF
:1000800084B1806284B984B1806184B985B18062B1
:1000900085B985B18F7E85B92AEA36EE86E991E089
:1000A0002150304080409040D9F7000085B18F7DCD
:1000B00085B985B18F7E85B92FEF33ED80E321506F
:1000C00030408040E1F700C0000085B1806185B913
:1000D00085B18F7D85B99AEA26EE36E981E09150A7
:1000E000204030408040D9F70000D0CFF894FFCFB7
:00000001FF
