S0230000426C696E6B5F776974685F4249545F4D616E6970756C6174696F6E2E7372656368
S11300000C9434000C943E000C943E000C943E007E
S11300100C943E000C943E000C943E000C943E0064
S11300200C943E000C943E000C943E000C943E0054
S11300300C943E000C943E000C943E000C943E0044
S11300400C943E000C943E000C943E000C943E0034
S11300500C943E000C943E000C943E000C943E0024
S11300600C943E000C943E0011241FBECFEFD8E048
S1130070DEBFCDBF0E9440000C945C000C940000D5
S113008084B1806184B985B1806185B92FEF83ED36
S113009090E3215080409040E1F700C0000085B11A
S11300A08F7E85B92FEF83ED90E3215080409040FF
S10F00B0E1F700C00000E7CFF894FFCF98
S9030000FC
