:100000000C9434000C943E000C943E000C943E0082
:100010000C943E000C943E000C943E000C943E0068
:100020000C943E000C943E000C943E000C943E0058
:100030000C943E000C943E000C943E000C943E0048
:100040000C943E000C943E000C943E000C943E0038
:100050000C943E000C943E000C943E000C943E0028
:100060000C943E000C943E0011241FBECFEFD8E04C
:10007000DEBFCDBF0E9440000C9467000C940000CE
:100080008AB180648AB984B5836084BD84B5806C8C
:1000900084BD85B5836085BD85B58B7F85BD80E0DA
:1000A00008C087BDEFE3FCE93197F1F700C000001D
:1000B0008F5F8F3FB1F708C087BDEFE3FCE9319751
:1000C000F1F700C0000081508111F6CFE8CFF8941D
:0200D000FFCF60
:00000001FF
