S01C000050756C6C5F55505F5265736973746F725F4269742E737265632F
S11300000C9434000C943E000C943E000C943E007E
S11300100C943E000C943E000C943E000C943E0064
S11300200C943E000C943E000C943E000C943E0054
S11300300C943E000C943E000C943E000C943E0044
S11300400C943E000C943E000C943E000C943E0034
S11300500C943E000C943E000C943E000C943E0024
S11300600C943E000C943E0011241FBECFEFD8E048
S1130070DEBFCDBF0E9440000C9490000C940000A1
S11300808AB18B7F8AB984B1806284B984B180617A
S113009084B94A9B3EC085B1806285B985B18F7EA3
S11300A085B92AEA38EF80E192E02150304080405F
S11300B09040D9F7000085B18F7D85B985B18F7ED9
S11300C085B92FEF3BE782E9215030408040E1F7CA
S11300D000C0000085B1806185B985B18F7D85B987
S11300E09FEF2BE732E9915020403040E1F700C008
S11300F0000085B18F7D85B985B18F7E85B98FEF7D
S11301009BE722E9815090402040E1F700C00000C5
S1130110C0CF85B18F7D85B985B18F7E85B9B9CFC3
S1070120F894FFCF7D
S9030000FC
