S00F0000554152545F54582E73726563CE
S11300000C9434000C9449000C9449000C9449005D
S11300100C9449000C9449000C9449000C94490038
S11300200C9449000C9449000C9449000C94490028
S11300300C9449000C9449000C9449000C94490018
S11300400C9449000C9449000C9449000C94490008
S11300500C9449000C9449000C9449000C944900F8
S11300600C9449000C94490011241FBECFEFD8E032
S1130070DEBFCDBF11E0A0E0B1E0E4EFF0E002C0EC
S113008005900D92AE30B107D9F70E945F000C9431
S113009078000C9400009091C00095FFFCCF8093F1
S11300A0C6000895CF93DF93EC0103C021960E940C
S11300B04B0088818111FACFDF91CF91089510927E
S11300C0C50087E68093C40088E08093C10086E081
S11300D08093C20080E091E00E9452002FEF83EDF4
S11300E090E3215080409040E1F700C00000F2CF3F
S10700F0F894FFCFAE
S11100F448454C4C4F20574F524C440D0A00C7
S9030000FC
