S01B00004D6F746F725F576974685F46756E6374696F6E2E7372656358
S11300000C9434000C943E000C943E000C943E007E
S11300100C943E000C943E000C943E000C943E0064
S11300200C943E000C943E000C943E000C943E0054
S11300300C943E000C943E000C943E000C943E0044
S11300400C943E000C943E000C943E000C943E0034
S11300500C943E000C943E000C943E000C943E0024
S11300600C943E000C943E0011241FBECFEFD8E048
S1130070DEBFCDBF0E9470000C947D000C94000084
S113008085B1806285B985B18F7E85B92FEF83E212
S113009094EF215080409040E1F700C000000895A3
S11300A085B18F7D85B985B18F7E85B92FEF83EDBD
S11300B090E3215080409040E1F700C00000089593
S11300C085B1806185B985B18F7D85B92FEF83E2D4
S11300D094EF215080409040E1F700C00000089563
S11300E084B1806284B984B1806184B90E94400083
S11100F00E9450000E946000F9CFF894FFCFE8
S9030000FC
