S024000045787465726E616C5F496E746572727570745F46697273745F7072672E7372656382
S11300000C9434000C9440000C943E000C943E007C
S11300100C943E000C943E000C943E000C943E0064
S11300200C943E000C943E000C943E000C943E0054
S11300300C943E000C943E000C943E000C943E0044
S11300400C943E000C943E000C943E000C943E0034
S11300500C943E000C943E000C943E000C943E0024
S11300600C943E000C943E0011241FBECFEFD8E048
S1130070DEBFCDBF0E9461000C9484000C9400008C
S11300801F920F920FB60F9211242F933F938F93C9
S11300909F9395B180E2892785B92FEF33E284EFEE
S11300A090E02150304080409040D9F700C00000DB
S11300B09F918F913F912F910F900FBE0F901F90A2
S11300C018958AB18B7F8AB984B1806284B984B16E
S11300D0806184B98BB184608BB98DB381608DBB31
S11300E0E9E6F0E0808182608083789495B180E1D4
S11300F0892785B92FEF87EA91E621508040904007
S10F0100E1F700C00000F2CFF894FFCF3C
S9030000FC
