S026000044454C41595F54494D45525F305F46495253545F5052475F4E4F524D414C2E73726563C9
S11300000C9434000C943E000C943E000C943E007E
S11300100C943E000C943E000C943E000C943E0064
S11300200C943E000C943E000C943E000C943E0054
S11300300C943E000C943E000C943E000C943E0044
S11300400C943E000C943E000C943E000C943E0034
S11300500C943E000C943E000C943E000C943E0024
S11300600C943E000C943E0011241FBECFEFD8E048
S1130070DEBFCDBF0E9454000C945E000C940000BF
S113008020E030E00CC016BC14BC85B5816085BD91
S113009085B3816085BBA89BFECF2F5F3F4F243281
S11300A084EF380780F3089584B1806284B995B1F0
S11300B080E2892785B90E944000F9CFF894FFCFE8
S9030000FC
